:020000040801F1
:10200000DFF874D072B629F067FD1C481C490160E6
:102010001C481D491D4A42F8040B116000201C4950
:10202000154A41F8040B9142FFF4FBAF19491A4AD3
:102030001A4B29F06BFD1A4A1A4B29F070FD1A4908
:102040001A4A1B4B29F062FD1A491B4A1B4B29F007
:102050005DFD1B4A1B4B29F062FD1B491B4A1C4BB3
:1020600029F054FD1B4A1C4B29F059FD29F022FD93
:1020700028F05AFC7047000000800104000009A20B
:10208000110000001500201400002004001018E0CA
:1020900000700104E0770808008000043098000414
:1020A00030980004F85A0104A44E080800002014D7
:1020B000F01B20149C6A0808F81B2014F428201434
:1020C000F8282014480F221498770808600F22047B
:1020D000A80F2204A80F22042812220481F0004134
:1020E00002E000BF83F0004330B54FEA41044FEAFD
:1020F000430594EA050F08BF90EA020F1FBF54EA98
:10210000000C55EA020C7FEA645C7FEA655C00F033
:10211000E2804FEA5454D4EB5555B8BF6D420CDD04
:102120002C4480EA020281EA030382EA000083EA87
:10213000010180EA020281EA0303362D88BF30BD27
:1021400011F0004F4FEA01314FF4801C4CEA11317D
:1021500002D0404261EB410113F0004F4FEA0333DC
:102160004CEA133302D0524263EB430394EA050F67
:1021700000F0A780A4F10104D5F1200E0DDB02FAD6
:102180000EFC22FA05F2801841F1000103FA0EF26A
:10219000801843FA05F359410EE0A5F120050EF130
:1021A000200E012A03FA0EFC28BF4CF0020C43FA61
:1021B00005F3C01851EBE37101F0004507D54FF06E
:1021C000000EDCF1000C7EEB00006EEB0101B1F5BE
:1021D000801F1BD3B1F5001F0CD349085FEA300004
:1021E0004FEA3C0C04F101044FEA445212F5800F0F
:1021F00080F09A80BCF1004F08BF5FEA500C50F1AC
:10220000000041EB045141EA050130BD5FEA4C0C8E
:10221000404141EB010111F4801FA4F10104E9D117
:1022200091F0000F04BF01460020B1FA81F308BF0E
:102230002033A3F10B03B3F120020CDA0C3208DDDA
:1022400002F1140CC2F10C0201FA0CF021FA02F1B5
:102250000CE002F11402D8BFC2F1200C01FA02F125
:1022600020FA0CFCDCBF41EA0C019040E41AA2BF4A
:1022700001EB0451294330BD6FEA04041F3C1CDA12
:102280000C340EDC04F11404C4F1200220FA04F032
:1022900001FA02F340EA030021FA04F345EA0301DC
:1022A00030BDC4F10C04C4F1200220FA02F001FA9E
:1022B00004F340EA0300294630BD21FA04F0294620
:1022C00030BD94F0000F83F4801306BF81F48011B9
:1022D0000134013D4EE77FEA645C18BF7FEA655C2C
:1022E00029D094EA050F08BF90EA020F05D054EAFE
:1022F000000C04BF1946104630BD91EA030F1EBF03
:102300000021002030BD5FEA545C05D14000494106
:1023100028BF41F0004130BD14F580043CBF01F5F9
:10232000801130BD01F0004545F0FE4141F47001DF
:102330004FF0000030BD7FEA645C1ABF19461046BA
:102340007FEA655C1CBF0B46024650EA013406BFBB
:1023500052EA033591EA030F41F4002130BD00BF7A
:1023600090F0000F04BF0021704730B54FF4806437
:1023700004F132044FF000054FF0000150E700BFB8
:1023800090F0000F04BF0021704730B54FF4806417
:1023900004F1320410F0004548BF40424FF0000104
:1023A0003EE700BF42004FEAE2014FEA31014FEA47
:1023B00002701FBF12F07F4393F07F4F81F0605196
:1023C000704792F0000F14BF93F07F4F704730B505
:1023D0004FF4607401F0004521F0004120E700BF98
:1023E00050EA010208BF704730B54FF000050AE01F
:1023F00050EA010208BF704730B511F0004502D520
:10240000404261EB41014FF4806404F132045FEA21
:10241000915C3FF4DCAE4FF003025FEADC0C18BFC6
:1024200003325FEADC0C18BF033202EBDC02C2F1BC
:10243000200300FA03FC20FA02F001FA03FE40EA4E
:102440000E0021FA02F11444C1E600BF70B54FF04E
:10245000FF0C4CF4E06C1CEA11541DBF1CEA135530
:1024600094EA0C0F95EA0C0F00F0DEF82C4481EA98
:10247000030621EA4C5123EA4C5350EA013518BFB8
:1024800052EA033541F4801143F4801338D0A0FBA5
:1024900002CE4FF00005E1FB02E506F00042E0FB52
:1024A00003E54FF00006E1FB03569CF0000F18BF58
:1024B0004EF0010EA4F1FF04B6F5007F64F5407400
:1024C00004D25FEA4E0E6D4146EB060642EAC62193
:1024D00041EA55514FEAC52040EA5E504FEACE2E00
:1024E000B4F1FD0C88BFBCF5E06F1ED8BEF1004F03
:1024F00008BF5FEA500E50F1000041EB045170BD7F
:1025000006F0004646EA010140EA020081EA0301C2
:10251000B4EB5C04C2BFD4EB0C0541EA045170BDBE
:1025200041F480114FF0000E013C00F3AB8014F138
:10253000360FDEBF002001F0004170BDC4F1000481
:10254000203C35DA0C341BDC04F11404C4F1200502
:1025500000FA05F320FA04F001FA05F240EA02005D
:1025600001F0004221F0004110EBD37021FA04F693
:1025700042EB06015EEA430E08BF20EAD37070BD4D
:10258000C4F10C04C4F1200500FA04F320FA05F0AC
:1025900001FA04F240EA020001F0004110EBD370AE
:1025A00041F100015EEA430E08BF20EAD37070BD1E
:1025B000C4F1200500FA05F24EEA020E20FA04F3F7
:1025C00001FA05F243EA020321FA04F001F00041A6
:1025D00021FA04F220EA020000EBD3705EEA430E17
:1025E00008BF20EAD37070BD94F0000F0FD101F046
:1025F0000046400041EB010111F4801F08BF013C7F
:10260000F7D041EA060195F0000F18BF704703F0BC
:102610000046520043EB030313F4801F08BF013D43
:10262000F7D043EA0603704794EA0C0F0CEA1355FF
:1026300018BF95EA0C0F0CD050EA410618BF52EAB9
:102640004306D1D181EA030101F000414FF00000BF
:1026500070BD50EA410606BF1046194652EA4306CD
:1026600019D094EA0C0F02D150EA013613D195EA41
:102670000C0F05D152EA03361CBF104619460AD189
:1026800081EA030101F0004141F0FE4141F4700193
:102690004FF0000070BD41F0FE4141F4780170BD83
:1026A00070B54FF0FF0C4CF4E06C1CEA11541DBFE8
:1026B0001CEA135594EA0C0F95EA0C0F00F0A7F8EA
:1026C000A4EB050481EA030E52EA03354FEA013117
:1026D00000F088804FEA03334FF0805545EA13132A
:1026E00043EA12634FEA022245EA111545EA1065F2
:1026F0004FEA00260EF000419D4208BF964244F189
:10270000FD0404F5407402D25B084FEA3202B61AA7
:1027100065EB03055B084FEA32024FF480104FF47B
:10272000002CB6EB020E75EB030E22BFB61A7546EF
:1027300040EA0C005B084FEA3202B6EB020E75EB82
:10274000030E22BFB61A754640EA5C005B084FEAEA
:102750003202B6EB020E75EB030E22BFB61A7546B7
:1027600040EA9C005B084FEA3202B6EB020E75EBC2
:10277000030E22BFB61A754640EADC0055EA060E83
:1027800018D04FEA051545EA16754FEA06164FEAC6
:10279000C30343EA52734FEAC2025FEA1C1CC0D172
:1027A00011F4801F0BD141EA00014FF000004FF0FF
:1027B000004CB6E711F4801F04BF01430020B4F1C0
:1027C000FD0C88BFBCF5E06F3FF6AFAEB5EB030C78
:1027D00004BFB6EB020C5FEA500C50F1000041EB75
:1027E000045170BD0EF0004E4EEA113114EB5C0442
:1027F000C2BFD4EB0C0541EA045170BD41F4801115
:102800004FF0000E013C90E645EA060E8DE60CEA1C
:10281000135594EA0C0F08BF95EA0C0F3FF43BAF39
:1028200094EA0C0F0AD150EA01347FF434AF95EAF0
:102830000C0F7FF425AF104619462CE795EA0C0FD4
:1028400006D152EA03353FF4FDAE1046194622E7A1
:1028500050EA410618BF52EA43067FF4C5AE50EA7B
:1028600041047FF40DAF52EA43057FF4EBAE12E76B
:102870004FF0FF3C06E000BF4FF0010C02E000BF4C
:102880004FF0010C4DF804CD4FEA410C7FEA6C5C2F
:102890004FEA430C18BF7FEA6C5C1BD001B050EAD2
:1028A000410C0CBF52EA430C91EA030F02BF90EABD
:1028B000020F0020704710F1000F91EA030F58BF7C
:1028C000994208BF90422CBFD8176FEAE37040F0DE
:1028D000010070474FEA410C7FEA6C5C02D150EA7C
:1028E000013C07D14FEA430C7FEA6C5CD6D152EA37
:1028F000033CD3D05DF8040B704700BF84461046FC
:1029000062468C461946634600E000BF01B5FFF7FA
:10291000B7FF002848BF10F1000F01BD4DF808EDCA
:10292000FFF7F4FF0CBF012000205DF808FB00BF9B
:102930004DF808EDFFF7EAFF34BF012000205DF8F5
:1029400008FB00BF4DF808EDFFF7E0FF94BF012042
:1029500000205DF808FB00BF4DF808EDFFF7CEFF43
:1029600094BF012000205DF808FB00BF4DF808ED82
:10297000FFF7C4FF34BF012000205DF808FB00BF53
:102980004FEA410212F5001215D211D56FF4787397
:10299000B3EB625212D94FEAC12343F0004343EA3A
:1029A000505311F0004F23FA02F018BF4042704715
:1029B0004FF00000704750EA013005D111F000409F
:1029C00008BF6FF0004070474FF00000704700BF35
:1029D0004A0011D212F5001211D20DD56FF478739E
:1029E000B3EB62520ED44FEAC12343F0004343EAF3
:1029F000505323FA02F070474FF00000704750EA3E
:102A0000013002D14FF0FF3070474FF000007047A7
:102A10004BB942B9002908BF002802D04FF0FF315E
:102A2000084600F03BB882B0EC462DE9005000F0BB
:102A30001DF8DDF804E002B00CBC70472DE97043CE
:102A4000069E14461D468046894600F029F804FB80
:102A500001F300FB0533A4FB00451D44B8EB04045F
:102A600069EB0505C6E90045BDE870832DE97043B3
:102A7000069E1446804689461D4600F05DF900FB1F
:102A800005F504FB0153A0FB04451D44B8EB040409
:102A900069EB0505C6E90045BDE87083704700BFD6
:102AA00000292DE9F00FC0F29F800024002BC0F216
:102AB0009680154606460F46002B3ED18A4257D9CE
:102AC000B2FA82F34BB1C3F1200201FA03F720FA04
:102AD00002F29D40174300FA03F6290CB7FBF1F20E
:102AE000330C01FB127CA8B243EA0C4700FB02F353
:102AF000BB4209D97F1902F1FF3C80F00181BB4242
:102B000040F2FE80023A2F44FF1AB7FBF1F3B6B24F
:102B100001FB137146EA014100FB03F0884208D92A
:102B2000491903F1FF3780F0ED80884240F2EA80D6
:102B3000023B43EA0242002303E08B420AD900230E
:102B40001A461046194614B1404261EB4101BDE8F6
:102B5000F00F7047B3FA83F8B8F1000F40F08480AB
:102B60008B4202D3824200F2DE8000230122E8E79A
:102B700012B90123B3FBF2F5B5FA85F2002A39D177
:102B80007F1B280C1FFA85FC0123B7FBF0F1320CE8
:102B900000FB117742EA07470CFB01F2BA4207D962
:102BA0007F1901F1FF3802D2BA4200F2C1804146DA
:102BB000BF1AB7FBF0F2B6B200FB127046EA004053
:102BC0000CFB02FC844507D9401902F1FF3702D201
:102BD000844500F2AB803A4642EA0142B1E7E44361
:102BE000524263EB430364E7404261EB41014FF023
:102BF000FF345BE79540C2F1200327FA03F1280C6C
:102C000026FA03F39740B1FBF0F81F433B0C00FB9F
:102C100018111FFA85FC43EA01410CFB08F38B42B3
:102C200006FA02F608D9491908F1FF3279D28B4227
:102C300077D9A8F102082944C91AB1FBF0F3BFB251
:102C400000FB131147EA01470CFB03F2BA4207D914
:102C50007F1903F1FF3160D2BA425ED9023B2F44A3
:102C6000BF1A43EA084390E7C8F1200203FA08FCC0
:102C700025FA02F343EA0C0C4FEA1C4921FA02F34D
:102C800001FA08F720FA02F2B3FBF9F1174309FB46
:102C900011333A0C1FFA8CFB42EA03430BFB01FA97
:102CA0009A4505FA08F008D913EB0C0301F1FF323D
:102CB00035D29A4533D902396344CAEB0303B3FBD7
:102CC000F9F209FB1233BFB247EA03470BFB02F9E3
:102CD000B94508D917EB0C0702F1FF331BD2B945F0
:102CE00019D9023A674442EA0145A5FB0001C9EB44
:102CF00007078F424FF000030AD305D02A4620E78A
:102D0000624601E73B4614E706FA08F68642F5D22A
:102D10006A1E002315E71A46E5E70B46A0E71146B1
:102D2000CBE7904688E7434642460AE7023A53E734
:102D300002392F443CE700BF2DE9F00F1446054649
:102D40000E46002B43D18A4253D9B2FA82F757B1CB
:102D5000C7F1200620FA06F601FA07F302FA07F493
:102D60001E4300FA07F5210CB6FBF1F22B0C01FB18
:102D70001267A0B243EA074600FB02F3B34209D947
:102D8000361902F1FF3780F0F680B34240F2F3804B
:102D9000023A2644F61AB6FBF1F3ADB201FB136119
:102DA00045EA014100FB03F0884208D9091903F103
:102DB000FF3680F0E280884240F2DF80023B43EA47
:102DC0000242002310461946BDE8F00F70478B42BF
:102DD0004AD8B3FA83F6002E4DD18B4202D38242F9
:102DE00000F2D6800023012210461946BDE8F00FFC
:102DF000704712B90124B4FBF2F4B4FA84F2002A49
:102E00007CD1091B260CA7B20123B1FBF6F02A0CDA
:102E100006FB101142EA014107FB00F28A4207D982
:102E2000091900F1FF3C02D28A4200F2C3806046D9
:102E3000891AB1FBF6F2ADB206FB121145EA014563
:102E400007FB02F7AF4208D92C1902F1FF3180F0DD
:102E50009680A74240F29380023A42EA004210462E
:102E60001946BDE8F00F704700231A461046194670
:102E7000BDE8F00F7047C6F1200522FA05F4B34013
:102E80001C434FEA144821FA05F301FA06F720FA29
:102E900005F5B3FBF8FC2F4308FB1C333D0C1FFA70
:102EA00084FA45EA03430AFB0CF9994502FA06FB4A
:102EB00004D91B190CF1FF326DD39446C9EB0303FF
:102EC000B3FBF8F508FB1533BFB247EA03470AFB2B
:102ED00005F8B84504D93F1905F1FF3361D31D4604
:102EE00045EA0C4CACFB0B23C8EB07079F424FF0A5
:102EF000000549D345D062462B4663E79440C2F1B2
:102F0000200321FA03FC260C20FA03F301FA02F550
:102F1000BCFBF6F843EA05010B0C06FB18CCA7B284
:102F200043EA0C4C07FB08F3634500FA02F509D9A4
:102F30001CEB040C08F1FF323AD2634538D9A8F1F2
:102F40000208A444C3EB0C0CBCFBF6F389B206FBED
:102F500013CC41EA0C4107FB03F28A4207D9091955
:102F600003F1FF3022D28A4220D9023B2144891A40
:102F700043EA084349E73A460CE733461FE70A4667
:102F80006BE7B0409042B6D20CF1FF32002319E754
:102F90003346324616E799458FD9ACF1020C2344EB
:102FA0008CE7B8459BD9023D274499E70346DEE705
:102FB0009046C7E7023821443AE700BF10F8012BDA
:102FC00011F8013B012A28BF9A42F7D0D01A704766
:102FD0004FEA4102B2F1E04324BFB3F5001CDCF13B
:102FE000FE5C0DD901F0004C4FEAC0024CEA507073
:102FF000B2F1004F40EB830008BF20F001007047A2
:1030000011F0804F21D113F13872BCBF01F00040A4
:10301000704741F480114FEA5252C2F11802C2F1D6
:10302000200C10FA0CF320FA02F018BF40F0010057
:103030004FEAC1234FEAD32303FA0CFC40EA0C0009
:1030400023FA02F34FEA4303CCE77FEA625307D146
:1030500050EA01331EBF4FF0FE4040F4400070477D
:1030600001F0004040F0FE4040F40000704700BF17
:10307000F7B5264B1B5C022B05460F4602D02448B1
:10308000932111E0234B012153F8206000F048FD0B
:10309000044617B1304600F083FE204601A901F036
:1030A000ABFF28B11A48A0211B4A1C4B43F0A6FADB
:1030B000019B4BB31A4B53F8356003EBC5035F68B4
:1030C00016B91348AA21EFE7204601F035FF39462B
:1030D0000120B047204601F0EBFE204601A901F097
:1030E0008BFF10B10A48B421DEE70E4B1C2202FB15
:1030F0000535019B6A69934206D3204601F01CFF07
:1031000010B10348BA21CFE703B0F0BD1B2920144A
:10311000A3AF0508C0B005088BAF0508654C0708CC
:10312000FC282014202920142DE9F341374B1E5C84
:10313000F6B2022E04460F4602D03548D52112E0E1
:10314000002100F0EDFC0546002F2ED0314B1A5D1A
:1031500042BB47F0ADFD01A90646284601F05CFFE1
:1031600028B12B48E0212C4A2C4B43F047FA2C4B3A
:103170001C2202FB04335A68019B9A420ED1294B50
:103180001A5D1F4652B1284B1D5D284604F060F9B8
:1031900010B1284604F034F900233B55304647F07F
:1031A000D7FD30E000221A552DE0204B53F8347043
:1031B00003EBC403D3F8048017B91548F721D2E70D
:1031C00001F0BAFE41463046B847284601F070FE8D
:1031D000284601A901F020FF18B10D4840F2011165
:1031E000C1E70F4B1C2202FB0434A3686268D21AA9
:1031F000019B934207D3284601F09EFE18B1044874
:1032000040F20911AFE702B0BDE8F0811B2920149C
:10321000A3AF05081529201439AF0508654C070828
:103220002029201474292014A0AF0508FC2820149C
:103230000B78487813B10021FFF71ABF1946FFF742
:1032400073BF0000114B70B553F82040054620466F
:1032500000F09EFD0646C0B92046012100F036FD73
:103260003146204600F032FD094A52F8353002EB73
:10327000C505696833B90748074A084B40F21F1172
:1032800043F0BCF94FF0FF30984770BDC0B005085F
:10329000FC282014A3AF0508D4AF0508654C070827
:1032A0000228F8B505460C4676D80B780C2B0BD8BF
:1032B0004B78032B08D88B78012B05D8CB78022BC1
:1032C0008CBF0023012300E00023002B64D047F0D3
:1032D000EFFC33494B5D07461BB147F039FDFD203C
:1032E0005BE0304A137810469BB92F4E00229A5566
:1032F0002E4ECA549A552E4E9A552E4E06EBC30E9C
:10330000CEF8042046F833200133032BEDD10123FE
:103310000370294B227803F8252003EB850362789C
:103320005A70A2789A70E278DA70384601234B55C9
:1033300047F00EFD214B585D47F03AFC064630B190
:103340001F48204A204B4FF4FD7143F057F91F4BA3
:1033500053F82550284600F025FD22781C4B2846BE
:1033600053F8221000F014FCE3786178A278284624
:1033700000F06AFC284600F099FC284600F09CFC0E
:1033800005201449324603F085FD052012493246D6
:1033900003F0B8FD304600E0FC2040B2F8BD00BFAD
:1033A0001B29201414292014F8282014152920146E
:1033B00074292014FC2820148C292014BBB0050883
:1033C000A3AF0508F8AF0508654C0708C0B00508AD
:1033D00008B00508B93401083D3A010802282DE972
:1033E000F041044654D82D4F3B5C002B52D02C4B5F
:1033F00053F82080404600F0EBFC3B5D022B2CD1C3
:103400000021204600F08CFB01210646204600F0FA
:1034100087FB0546304601F08FFD08B1FF203AE0FA
:10342000284601F089FD0028F8D1304601F092FDD0
:103430000028F3D1284601F08DFD0028EED130465A
:1034400001F0B4FC0028E9D1284601F0AFFC0028C7
:10345000E4D1144B185700F04FFD404600F0A2FC99
:10346000114B185D47F07CFC05460028D6D147F08B
:103470001FFC0E4B3D5543F8345003EBC4035D6015
:103480000B4B1D550B4B1D5547F062FC284602E0C7
:10349000FC2000E0FE2040B2BDE8F0811B29201492
:1034A000C0B0050867B00508BBB00508FC282014AB
:1034B00015292014F82820142DE9F74F00252C4653
:1034C000174F3B5DE0B213B3164E3A5DDFF86090E4
:1034D00006EB05085FFA82FBD8F80430AA5914F805
:1034E00009A001920093FFF779FF07F804B0019A51
:1034F000009BAA5104F809A0C8F804300A4B1857D9
:1035000000F00AFD094B003018BF0120E0540134DF
:10351000032C05F10805D3D103B0BDE8F08F00BF3F
:103520001B292014FC28201467B005081829201432
:10353000F828201402282DE9F34105460F461646C7
:1035400044D8002942D0002A40D0234B1B5C022BD8
:103550003CD1224C47F0ACFB635D80462BB9204B3D
:10356000585D03F046FF01236355404647F0F0FBEA
:103570002846002100F0D4FA01A9054601F04CFDCF
:1035800018B1184840F2A12111E0019CA64228BFC1
:103590002646044600E00134B4420CD02846395D8A
:1035A00001F00CFD0028F6D00E4840F2AD210E4A85
:1035B0000E4B43F023F8019B9C4209D1284601F0B1
:1035C00077FC28B107484FF42E71F0E7002000E0A7
:1035D000204602B0BDE8F0811B2920147429201474
:1035E000A0AF0508A3AF050851B00508654C070852
:1035F0000228F7B50D46144635D8002933D0002AE5
:1036000033D01B4A135C022B2DD1012100F088FA24
:1036100001A9064601F0F0FC18B1164840F212313B
:1036200012E0019B9C4234BF27461F46044600E03F
:103630000134BC420CD03046291901F0CDFC0028E1
:10364000F6D00C4840F21E310B4A0C4B42F0D6FF2C
:10365000019B9C4209D1304601F02AFC28B1054863
:1036600040F22931F0E7002000E0204603B0F0BD31
:103670001B292014A3AF05083CB00508654C0708BA
:1036800002282DE9F74F04468946924600F2A480AD
:10369000002900F0A18047F00BFB524B1E5DF6B2F3
:1036A000012E05469B4603D047F052FBFE2094E0D6
:1036B0000021204600F034FA31468046204600F0D2
:1036C0002FFA494B43F8349003EBC403DFF83C91E5
:1036D000C3F804A009EB840A63005146074640463C
:1036E000019300F033FA40464049524601F0A6FCEF
:1036F000019B30B1284647F02BFB3D4840F2763124
:1037000012E0013309EB43093846494600F01EFA3E
:10371000384636494A4601F091FC48B1284647F000
:1037200017FB334840F27D31324A334B42F066FF9B
:10373000DFF8DCA031491AF9040000F00DFC014665
:1037400030B1284647F004FB294840F28331EBE7CB
:103750002B4B204653F8247000F0E2F931468146A5
:10376000204600F0DDF98046384600F0A8FA254BE7
:1037700038461E5500F0A6FA1AF9040000F0ACFB1A
:10378000484601F095FB18B1194840F2433116E064
:10379000404601F08DFB18B115484FF452710EE010
:1037A000484601F095FB18B1114840F24D3106E052
:1037B000404601F08DFB20B10D4840F25231124AD3
:1037C000B3E7384600F0DEF9022328460BF8043050
:1037D00047F0BEFA002000E0FC2040B203B0BDE894
:1037E000F08F00BF1B292014FC282014313201085F
:1037F000A3AF05084BAF0508654C0708193D010844
:10380000C0B00508152920141DAF0508772920141C
:1038100067B00508022807B513D80C4A135C022BC1
:103820000FD1012100F07CF901A901F0E5FB30B1D5
:103830000748084A084B40F2B93142F0DFFE0198D0
:1038400000E0002003B05DF804FB00BF1B2920143A
:10385000A3AF050866AF0508654C0708022810B538
:1038600004460CD8084B1B5C5BB1084B53F8200096
:1038700000F009FA064B02221A55002002E0FC2053
:1038800000E0FE2040B210BD1B292014C0B0050886
:10389000F828201402282DE9F041044688461746EE
:1038A0001E4614D80D48005D98B10D480D4D50F8D6
:1038B000240000F0F1F90C4B01221A5504EB4404EA
:1038C000281905F8048047708670002002E0FC206B
:1038D00000E0FE2040B2BDE8F08100BF1B292014AB
:1038E000C0B0050883292014F82820140228F7B551
:1038F00005460C4600F28F800B68002B00F08B8091
:10390000CB68002B00F087804A68464B9A4200F251
:103910008280896899427ED891427CD822699A42F5
:1039200079D86069984276D8A169994273D8904253
:1039300071D891426FD83C4B5E5DF6B2012E6CD1CE
:103940000021284600F0ECF831460746284600F0F2
:10395000E7F80646384601F07DF918B133484FF4D0
:1039600086610BE0236800933846636801936946DB
:1039700001F074FA30B12D4840F237412C4A2D4BFA
:1039800042F03CFE3846A16801F0F2FA18B127482F
:1039900040F23C41F2E7304601F05CF918B12348AF
:1039A00040F24241EAE7E36800933046236901931D
:1039B000694601F053FA18B11C4840F24941DDE76D
:1039C0003046616901F0D4FA18B1184840F24E410E
:1039D000D4E73046A16901F0DFFA064618B1134872
:1039E00040F25341CAE747F063F91C23124A2168A9
:1039F0005D435319515162685A60A2689A60A26986
:103A00009A61E268DA6022691A6162695A6147F074
:103A10009FF9304602E0FC2000E0FE2040B203B0F7
:103A2000F0BD00BFFFFF01001B292014A3AF050854
:103A3000E7AF0508654C0708202920142DE9F84355
:103A400000252E462C462C4B1A5DE7B202F0FF09EA
:103A500032B12A490022384631441A55FFF720FC7A
:103A6000274BE35C012B19D1DFF8B080254B18F808
:103A70000510F05800F002F9204B2348F35C90FB4E
:103A8000F3F0013047F024F908EB050338465A7883
:103A900018F805109B78FFF7FDFE04E0022B02D119
:103AA0003846FFF7DBFEB9F1020F0FD1174B1C218F
:103AB00001FB04313846FFF719FF154B03EBC40235
:103AC000384653F834105268FFF7DAFD114BE75CC3
:103AD000384603F0BDFC28B10F4BE35C13B1384608
:103AE00003F08EFC0134032C06F1040605F10305F6
:103AF000A9D1BDE8F88300BF1B2920148C2920140C
:103B0000F8282014C0B00508001BB7002029201495
:103B1000FC282014A0AF050818292014832920149C
:103B200001280CD006D302280ED100290CBF0A2090
:103B30000B20704700290CBF0E200F207047002972
:103B40000CBF0C200D2070470F2070470A38052845
:103B500017D8DFE800F012090E070B0301230B70E2
:103B600000230DE0012302E0012307E000230B7096
:103B700006E000230B70012302E000230B700223F8
:103B80004B707047012380F8513080F850307047F7
:103B9000F0B5294D06460F460FCD8BB06C460FC4CD
:103BA0000FCD0FC495E8030000233364A3F58063B1
:103BB000B36584E8030001F0BFFD204B204A0028D4
:103BC0000CBF104618460A22390202FB00F4B0FB73
:103BD000F1F3B4FBF1F1B1FBF2F502FB151202B9FE
:103BE00003B9013307FB03F1B0FBF1F2B2F5807FBB
:103BF000394401D90133F7E70321716399B2B16008
:103C0000911E4908013A42EA01227B43B263B4FBA8
:103C1000F3F30A22B3FBF2F102FB11330AAA02EB1F
:103C2000830353F8283CB365064B9F4284BF12239D
:103C300073640BB0F0BD00BFF0AD050880BA8C0115
:103C4000002D3101BFC62D00032910B59ABF0A4CC3
:103C5000615C0321012A08BF41F00401012B03D05C
:103C600005D3022B05D002E041F0080101E041F04C
:103C70002001017710BD00BF63B00508836A9B0671
:103C8000FCD5416070476FF0FF038364012380F827
:103C9000203003234376704743F4807342EA0122C5
:103CA000426283640323037670470000014B436143
:103CB000704700BF010801010123C364704701235D
:103CC000037370470323437370470000034B044A98
:103CD00000290CBF114619464161704701090100D6
:103CE000010900010369DA0711D403F03F03062B31
:103CF00006D00C2B0DD0022B0CBF052000207047E6
:103D0000836A13F0100F0CBF0120032070470020BE
:103D10007047022070470000082838B504D00928F1
:103D20000CBF0224002400E00124144B53F824505B
:103D30002846FFF7D7FF052818D8DFE800F01D094F
:103D4000030E1D1120460121BDE83840FFF790B950
:103D50002046BDE83840FFF775BA094B6B6138BDA6
:103D600020460121BDE83840FFF7DEB90548064A84
:103D7000064BF22142F042FC38BD00BFC0B005083E
:103D8000010901006AB00508A4B00508654C0708E0
:103D9000836A13F00E0F14BF00206FF0000070470D
:103DA000036D70470023C36143628360C360436156
:103DB00083610362C3624363836303640363436495
:103DC0008364C3640365436583650366C3657047A5
:103DD000836A5B06FCD570470CB430B585B008AB80
:103DE000054653F8044B03930A4601930094054893
:103DF0002946032306F054FF05B0BDE8304002B069
:103E0000704700BFF81B20140CB430B585B008AB68
:103E1000054653F8044B03930A4601930094054862
:103E20002946022306F03CFF05B0BDE8304002B051
:103E3000704700BFF81B20140CB430B585B008AB38
:103E4000054653F8044B03930A4601930094054832
:103E50002946012306F024FF05B0BDE8304002B03A
:103E6000704700BFF81B201407B5144A13681146A9
:103E7000FBB9134A52F823201F2A0DD900921F22A2
:103E800001921048104A6F21FFF7D6FF0F48104AE1
:103E9000104B702142F0B2FBD200D0B203F160426D
:103EA00002F561420133202B82F80003E1D10123A6
:103EB0000B60002003B05DF804FB00BF98292014BC
:103EC000D0B00508A9B105085EB1050878B10508AC
:103ED00050B10508654C0708C0B21F2806D8012359
:103EE00003FA00F0034B1860002000E0FD2040B210
:103EF000704700BF00E100E0C0B21F2807D80123CF
:103F000003FA00F0034BC3F88000002000E0FD201E
:103F100040B2704700E100E0C0B21F2807D801237B
:103F200003FA00F0034BC3F80001002000E0FD207D
:103F300040B2704700E100E0C0B21F2807D801235B
:103F400003FA00F0034BC3F88001002000E0FD20DD
:103F500040B2704700E100E070B5C6B21F2E0446C3
:103F60000D4613D891B146F0A3FE012303FA06F6DD
:103F7000084BC3F88061084B43F8345003EBC4048A
:103F80000025656046F0E4FE284600E0FE2040B2D1
:103F900070BD00BF00E100E09C29201410B504466C
:103FA00046F086FE2060002010BD08B546F0D0FE29
:103FB000002008BD024B5868C0F30800704700BFDE
:103FC00000ED00E030B5D1F8AC3002225A70082282
:103FD0009A700422DA703C221A7180225A710120F0
:103FE0006022DA711870D1F8B0402B22E273D1F858
:103FF000B0406273D1F8B0402F25A573D1F8B0401E
:104000000525E572D1F8B0402073D1F8B0004274B4
:10401000162281F8C020B1F8C220B2F5C15F07D1E5
:10402000D1F8B02075209070D1F8B0207A20D070EF
:10403000B1F8C220B2F5B15F07D1D1F8B020752038
:104040009070D1F8B0207A20D070124AC1F8D420F4
:104050004FF48062A1F8BC200F4AC1F8DC200F4A5F
:10406000C1F8E020D1F8B0400D4AC1F8D8200020B6
:104070000222A1F8BE002275D1F8B040B125A57585
:10408000D1F8B040C125E575D1F8B0102F240C76D9
:104090009A7130BDF9142014A11320149D1220141C
:1040A00041122014D1F8AC30022210B501205A7010
:1040B0003C2480229A70DA7018705A711C71D1F801
:1040C000B0309F229A72D1F8B0203523D373D1F843
:1040D000B0205373D1F8B0300522DA72D1F8B03085
:1040E0001873D1F8B03075229A70D1F8B0307A22B6
:1040F000DA70162381F8C030024BC1F8D4300020AA
:1041000010BD00BF490320144FF44073A1F8BC3028
:104110004FF48073A1F8BE300F4BC1F8DC300F4B69
:10412000C1F8E0300E4BC1F8D830D1F8B030D1F83A
:10413000AC20FF209875D1F8B0303820D875D1F870
:10414000B03042201875D1F8B030482159753C2361
:1041500093710020704700BF590720146510201488
:10416000DD0F201438B5324B0360324B4360324BC5
:104170008360324BC360324B0361324B4361324B3D
:104180008361324BC361324B0362324B8362324BE9
:10419000C3620025314B4562A1F8BC500363304B2C
:1041A000456383630C4600F04BF9B0F1807F8CBF10
:1041B0000422032284F8C520D4F8B0205574D4F822
:1041C000B020AF219172D4F8B0209F215172D4F861
:1041D000B02002211170D4F8B02020219171D4F8C0
:1041E000B0205221D171D4F8B020D8211172D4F866
:1041F000B020B0219170D4F8B0203021D170D4F823
:10420000B02006215170D4F8B020B9219174D4F8AF
:10421000B020AB21D174D4F8B01005220A74A4F8F0
:10422000B850E560A560257484F8C020002038BD32
:10423000B90B20147D09201475162014AF0E20141C
:104240002D0D20144D032014E50A2014D10920144B
:104250000505201461032014570320145303201470
:10426000D542010870B591F8C130EF2B06460C46D7
:104270000DD0F82B1AD0C22B1CD1D1F8C83043F086
:104280000403C1F8C830BDE87040FFF79BBED1F809
:10429000C83043F00203C1F8C830FFF703FF2146DE
:1042A00005463046FFF730FF284370BDBDE870403B
:1042B000FFF7F8BE46F08CFC0348044A044B40F676
:1042C000030142F09BF900BFA1B2050823B2050823
:1042D000654C070810B50C4621B9D0F8D430984782
:1042E000204610BD01290BD190F8C120C22A10D15F
:1042F00043691B68B3F5802F14BF0020C22010BD96
:1043000046F066FC0448054A054B40F61D1142F094
:1043100075F9002010BD00BFA1B2050845B305081E
:10432000654C070870B50C46064678B371B3D1F8F2
:10433000B0505DB3D1F8AC5045B34A60A1F8BA3083
:10434000FFF710FFD4F8B030AF2204F1C1059A7224
:104350002046294646F044FC94F8C130013BDBB2CC
:10436000FD2B08D9D4F8B0309F229A7220462946F6
:1043700046F036FC04E0284600F00CF80028F1D0A6
:1043800030462146BDE87040FFF76CBF6FF0770004
:1043900070BD000070B500220C4B03F110041344F3
:1043A0001444597C00238B4204DAE518AE78C55CCE
:1043B000AE4202D08B4202D106E00133F3E70A326B
:1043C000322AE9D1002070BD012070BD98B30508E4
:1043D00073B5154CB4F90000002822DA6A460020B3
:1043E0004FF0006146F054FC002210490A23534369
:1043F00001F1100018440B44597C00238B4205DA6C
:10440000C518AE783DF81350AE4203D08B4203D1AD
:10441000228004E00133F1E70132052AE5D1B4F945
:10442000000002B070BD00BF0C1C201498B305083A
:10443000024B0A2202FB00301030704798B3050887
:104440004FF48000704700F097B870B520F07840C6
:1044500000239AB2551C01EBC50466683EB154F8BE
:10446000084CA04207D351F83540A04203D201EBDB
:10447000C201486870BD0133EBE70000014B1968C9
:10448000FFF7E3BF9C2B2014002350F8082B22B128
:1044900050F8041C01FB0233F7E7184670472DE97A
:1044A000F843002706461446994600EB01083D46AE
:1044B00046451FD230464946FFF7C7FFEA002FB9ED
:1044C0002244012344F83500536010E054F83510BD
:1044D000884204EB020302D15A68013206E001353A
:1044E000092D0AD00832A318A05001225A600644B0
:1044F0000137DDE70020BDE8F8830620BDE8F8833A
:1045000070B506460D46144610460021402242F082
:10451000E4F8044B3046294622461B68BDE870404B
:10452000FFF7BDBF9C2B201408B590B9FFF750FFD3
:104530000A4A0028106008DA46F04AFB0848094A8F
:10454000094B40F2BA4142F059F8FFF771FF074BAF
:104550001860074B074A1A6008BD00BFC02B201423
:10456000DCB3050818B40508654C0708782D20143D
:10457000A02B201450B405082DE9F047DFF8D490A3
:10458000DFF8D4A0284C294FDFF8D0800020FFF7B7
:10459000CBFFD9F80030DAF800102548882606FB52
:1045A0000131244B4A881A60234B01F108021A603A
:1045B0004831402242F06DF8204BC4F8AC30204B1B
:1045C000C4F8B030FB43DAF800102360D9F80030AB
:1045D0004FF0006206FB01360025A4F8C650626069
:1045E000404621467368FFF79DFE783008D146F0BB
:1045F000EFFA1448144A154B4FF4AD6141F0FEFF39
:104600000B48134EFFF740FF3A46014630602846FC
:10461000FFF776FF6761C6F80480B46086F88050C3
:104620002846BDE8F08700BF902C2014502C2014A1
:104630005C2B2014742D20149C2B2014482C201447
:10464000A42B2014DCB305082BB40508654C07081F
:10465000C42B2014A02B2014C02B2014202B20149A
:1046600010B590F88030044693B9436880681B68A1
:1046700004F10C019847002807DA46F0A9FA05482A
:10468000054A064B922141F0B9FF012384F880309E
:1046900010BD00BF0FB7050846B70508654C0708F1
:1046A0002DE9F04F9A460368994285B00446884642
:1046B000934675D201EB0A029A4273D890F8803083
:1046C0000BB9FFF7CDFF0025554567D2A36803A8B6
:1046D0005E68FFF763FCD4F80890636805EB080C8C
:1046E00061469B6801934846CDF800C046F018FB30
:1046F000464401460022019B484698472E440398B1
:10470000FFF753FC16F0010F0BEB0507DDF800C0B7
:1047100004D1C5EB0A09B9F1010F0BD16368A06898
:10472000D3F810C031463A460123E04700283BD178
:104730000135C9E7A26800926146104646F0F0FADA
:10474000009A0146104646F01BFB43423044184095
:1047500009EB0603834288BFC6EB000929F0010973
:10476000B9F1020F63680FD1FA070DD53A788DF8C9
:104770000A207A788DF80B201F69A06831460DF168
:104780000A024B46B84706E0D3F810C0A06831468D
:104790003A464B46E04738B94D4495E7002004E0DF
:1047A000022002E0032000E0052005B0BDE8F08F04
:1047B00070B590F8803004460D4621F070460BB974
:1047C000FFF74EFFE3689E4209D26368A068DB688A
:1047D00029469847002814BF0620002070BD0220FB
:1047E00070BD000010B5074C94F90030053306D1B8
:1047F000FFF729FE0448FFF733FF00232370002052
:1048000010BD00BFE0960004C42B2014024B0146EB
:10481000986846F085BA00BFC42B2014022808B55A
:1048200010D0032810D0052810D0062810D0023050
:104830000ED046F0CDF90848084A094B40F207214E
:1048400041F0DCFEFD2004E0FC2002E0FA2000E064
:10485000F92040B208BD00BF0FB70508F8B605083B
:10486000654C070808B5FFF7BDFF002008BD000034
:1048700070B5044621B9C0F30B03A3B1FD203AE0A3
:10488000012907D1C0F30E03002BF7D14FF40046E6
:1048900002250BE00229F1D183B2002BEED14FF4B7
:1048A0008036042502E04FF4805601252046FFF7AC
:1048B000ADFF431C0146E1D0104841EA0571FFF706
:1048C00077FF18B1BDE87040FFF7A8BF04F100649E
:1048D000204600F023FE08B900200CE024F01F055C
:1048E000A319203323F01F039D42F5D8284646F034
:1048F000C7F92035F4E740B270BD00BFC42B2014C7
:1049000038B505460C46134605482946224646F06A
:104910008FF918B1BDE83840FFF780BF38BD00BF40
:10492000C42B201470B50B460546164610481A468F
:1049300029463346FFF7B4FE18B1BDE87040FFF7D3
:104940006DBF05F10065284600F0E8FD68B125F06F
:104950001F0406F120032B4423F01F039C4204D8BC
:10496000204646F08DF92034F3E7002070BD00BFEB
:10497000C42B201438B5054610B1FF2040B238BD15
:1049800000F05EF9FF2804460ED046F091F90A4B7C
:104990001A78012A0CBFFD2501226DB218BF1A70CA
:1049A00046F0D6F9033501D1FD20E7E7204600F0B7
:1049B00073F80020E2E700BF942D201437B50023E0
:1049C0000193044618B1FF2040B203B030BD46F059
:1049D0006FF90546204600F049F80190019BDB077E
:1049E00002D50D48792105E0019C14F0020405D0A0
:1049F00009488421094A0A4B41F000FE284646F046
:104A0000A7F9084B20461C7000F01FF9FF2814BFBF
:104A10000020FD20D8E700BFA2B7050892B705081F
:104A2000654C0708942D201413B50446019218B163
:104A3000FF2040B202B010BD01AA00F01FF82046CE
:104A4000F7E70000084951F82020002353619361E3
:104A5000D361136051F820204FF40041536011627C
:104A60009360D36093627047181C2014024B53F874
:104A700020301868704700BF141C201410B5054B77
:104A800053F8304024B943F8301003EBC0004260C3
:104A900010BD00BF982D201410B50446002000F072
:104AA000CFF8012000F0CCF82046FFF7CBFF002024
:104AB0000349FFF751FA0020BDE81040FFF70CBA98
:104AC000C54A010873B5454B00241B6801941B6857
:104AD0000193019B9B071AD5414D2B684FF400426F
:104AE0001A62404A136851686BB1204698473E4BA2
:104AF00001221A602B689A6922F400429A612046CA
:104B000002F07EFC03E039484FF4866105E0384C42
:104B1000002317E0354840F24E41364A364B41F00B
:104B20006DFD364A364952F8232051F82310126899
:104B30000192019A0131012000FA01F1114207D1DD
:104B40002368013323602368294D042BE9D917E03A
:104B50002C4E56F823204FF4004191612A4951F818
:104B6000332001EBC3035968002AD3D000209047BB
:104B70002B6856F823301A6922F400421A61DFE7E5
:104B800000232B602368092B26D8204A204952F89D
:104B9000232051F8231012680192019A013101205B
:104BA00000FA01F1114213D01A4A52F823204FF4AF
:104BB00000411161184951F8332001EBC3035968D2
:104BC00012B10020904703E0084840F26641A4E794
:104BD000236801332360D5E702B070BD141C201494
:104BE000181C2014982D2014A02D20140FB805088F
:104BF000A42D2014DFB70508654C07086C1C201491
:104C0000BC1C2014801C2014F82D20141C1C201403
:104C1000941C2014D01C2014A82D201408B50020AA
:104C200045F0C6FF002814BFFF20002008BD08B5CE
:104C3000002046F095F8002814BFFF20002008BD92
:104C400008B9FFF7EBBFFF20704708B9FFF7EFBFC8
:104C5000FF20704770B5841F092C05460FD9FE2030
:104C60000BE02B689E7102225A7148490020FFF721
:104C700073F90020FFF730F9002040B270BD46F014
:104C800017F8434B5A5D012A0DD14248424A40F27F
:104C900059212B46FFF7D0F84048414A414B40F29A
:104CA000592141F0ABFC01265E553F4D46F050F8CE
:104CB00055F824200023536055F82420136055F83C
:104CC0002420936055F82420D36055F82420D36124
:104CD00055F8242013635363FFF7A0FFFF2852D039
:104CE000092C50D801A151F824F000BF634C0108F1
:104CF000154D0108254D01082D4D01083D4D0108B8
:104D0000454D0108554D01085D4D01086D4D0108E7
:104D1000754D01086A68102111716A68012191714D
:104D20006B68A0E7A9688E71AB689CE7EA68102100
:104D30001171EA6801219171EB6894E729698E711C
:104D40002B691EE06A69102111716A690121917154
:104D50006B6916E0A9698E71AB6912E0EA691021EE
:104D60001171EA6901219171EB690AE0296A8E717A
:104D70002B6A06E06A6A102111716A6A0121917139
:104D80006B6A002270E7FD2077E700BFC54A010883
:104D9000600F22041DB90508B3B805080FB805084F
:104DA00013B90508654C0708D01C201437B5851FBA
:104DB0000023092D0446019303D9FE2040B203B01D
:104DC00030BD45F075FF1D4B53F825301B6801932E
:104DD0001B4B019953F825200123551C03FA05F5B7
:104DE0000D4203D0174840F2C52107E001999340D6
:104DF00013EA010506D0134840F2CB21124A134BA7
:104E000041F0FCFB45F0A4FF45F052FF10490B5D5B
:104E100053B91048104A40F2D3212346FFF70CF84B
:104E2000084840F2D321E9E70D5545F091FFFFF71F
:104E3000FEFEFF2814BF0020FD20BFE71C1C20142D
:104E4000941C20140FB80508F4B70508654C070832
:104E5000600F2204D3B70508E2B8050838B5851FEE
:104E6000092D0C4602D9FE2040B238BD08688307E0
:104E700003D00B4840F2ED2105E000F04FFB30B1CC
:104E8000074840F2F321074A074B41F0B7FB074BB5
:104E9000626853F825305A632268DA61E4E700BF9C
:104EA0000FB8050800B80508654C0708D01C201489
:104EB0000638092802D9FE2040B27047034B53F848
:104EC00020300122DA710020F6E700BFD01C201448
:104ED00037B5841F0023092C019303D9FE2040B26B
:104EE00003B030BD45F0E4FE104B53F824301B688E
:104EF00001930F4B019953F82430012202FA03F574
:104F00000D4205D1019901339A4012EA010503D0FF
:104F100045F01EFFFD20E2E745F01AFF054B53F870
:104F200024304FF400429A602846D8E71C1C201415
:104F3000941C2014D01C20140638092802D9FE2005
:104F400040B27047024B53F820300020D871F7E789
:104F5000D01C20140638092802D9FE2040B2704720
:104F6000024B53F8203000209860F7E7D01C201443
:104F70000638092801D9FE2007E0B1F5803F06D2A6
:104F8000044B53F820300020196040B27047FF20D6
:104F9000FBE700BFD01C20140638092801D9FE20E9
:104FA00006E03F2906D8044B53F82030002019634F
:104FB00040B27047FF20FBE7D01C201406380928B8
:104FC00002D9FE2040B27047024B53F82030002037
:104FD0001960F7E7441C20140638092802D9FE207E
:104FE00040B27047034B53F820301B680B70002011
:104FF000F6E700BF441C20140638092802D9FE2019
:1050000040B27047034B53F820309B6A0B6000207E
:10501000F6E700BFD01C20140638092802D9FE206C
:1050200040B27047044B53F820305A6B9B6AD31A36
:105030000B600020F4E700BFD01C201406380928BC
:1050400010B502D9FE2040B210BD054B53F83040D8
:1050500024B943F8301003EBC00042600020F2E7AF
:10506000A82D2014054B93F812320BB9032803D056
:1050700003288CBF0023012318467047282E2014D4
:1050800070B50446FFF7EEFF08B3134A2301D018AA
:10509000D35C012B1DD0057B00F10806CDB9294654
:1050A000102241F01AFB45F07BFE012333710B4BBC
:1050B00053F82430DA6822F00102DA60084B53F822
:1050C000240002F094F9074B1855284602E0FE2010
:1050D00000E0FD2040B270BD9C98000430970004B1
:1050E00048B90508202E201470B505460C46164612
:1050F000FFF7B8FF70B10B4928010B180A5C012AB1
:105100000AD01A7B42B14CB15C609E6000F0D6F8C8
:10511000002004E0FE2002E0FD2000E0FF2040B27D
:1051200070BD00BF9C9800042DE9F34704460F466C
:105130009046FFF797FF002846D0284B26019A1982
:10514000995D0129994641D0137B002B3ED0244B19
:105150009F423DD845F0ACFD224D019045F020FE28
:1051600055F824300022DA6055F82420137803F033
:10517000FE03137055F8243010229A60384655F813
:1051800024A045F025FE55F82420CAF81C00012172
:10519000516155F82420516055F824108B69002B7B
:1051A000FCD1B8F1000F02D040F2011300E001235E
:1051B0000B6055F824300122DA60019809F80620C6
:1051C00045F0C6FD002004E0FE2002E0FC2000E0E7
:1051D000FF2040B202B0BDE8F08700BF9C980004F9
:1051E0007BF0C1073097000473B50446FFF73AFF20
:1051F00028B345F05DFD154B019053F82420D1688C
:1052000021F00101D16053F82420117801F0FE0152
:10521000117053F8243001225A610D4A019823017C
:10522000D6180025D55445F093FD737B083643B15D
:10523000084B185D02F0E4F87571284602E0FE2084
:1052400000E0184640B202B070BD00BF30970004C5
:105250009C980004202E201482B0C3680193C36878
:1052600023F00103C360019802B0704730B50024F9
:1052700085B0104D605903690293C3680393FFF72B
:10528000EBFF0190029BDA070CD5039BDB0709D5E6
:105290002B5901225A61084A02EB840253680BB170
:1052A000906898472B59019ADA600434182CE0D1A1
:1052B00005B030BD309700049C98000408B50F205D
:1052C000FEF71AFE0F200449FEF746FE0F20BDE848
:1052D0000840FEF701BE00BF6D520108074A53782F
:1052E0009B0708D0064B196841F00D0119601B6837
:1052F0001360002000E0FB2040B27047CC97000410
:10530000000018E00F2811D80B4B00F5804253F82D
:105310002220D2050CD5DA6A012101FA00F01043EF
:10532000D862DA6A054B00201A6002E0FC2000E037
:10533000FF2040B2704700BF000018E0489700040B
:105340000F2812D80A4B0122D96A824021EA0202B0
:10535000DA62DA6A074B1A60074A002342F83030F3
:1053600002EBC0004360184600E0FC2040B27047EA
:10537000000018E0489700044C97000403280FD859
:10538000094B1A6822F440721A601A6842EA002235
:105390001A6000B918601A68044B00201A6000E017
:1053A000FB2040B2704700BF000018E0CC9700041B
:1053B0000F2810B529D851B30C68C4F30B0313B1EF
:1053C0001448FB2106E04A68C2F30B0232B11148CF
:1053D00040F20111104A114B41F010F9830003F122
:1053E000604303F5C8131C6012C92144196419688D
:1053F00041F4807119600A491C6841F8304001EBA2
:10540000C0001B6C4360104602E0FC2000E0F92065
:1054100040B210BD78B9050860B90508654C0708A9
:105420004C97000410B545F043FC154B1A7802F078
:10543000FF041AB145F08CFCFA201EE001221A701C
:1054400045F086FC45F054FC0E4B1C60DC620E4BB4
:105450001C600E4B1C6023469A0002F1604202F56C
:10546000C812002010601064094A02EBC30142F820
:1054700033000133102B4860EED140B210BD00BFA5
:105480003C302014000018E0CC970004489700043A
:105490004C97000408B545F02BFC0E4A002313601E
:1054A000D3620D4A13600D4A13609A0002F1604204
:1054B00002F5C812002010601064094A02EBC30113
:1054C00042F833000133102B4860EED1054B1870C1
:1054D00008BD00BF000018E0CC9700044897000406
:1054E0004C9700043C30201438B50A4C45F0E0FBE2
:1054F0002368DB07054601D545F0FAFB236823F056
:1055000001032360044B22681A60284645F020FC02
:10551000002038BD000018E0CC97000410B5114BF6
:105520001B6813F001031AD000230E4A0121D26A2E
:1055300001FA03F414420CD09A0002F1604202F521
:10554000C812146824F48074A04202D3126C9042F2
:1055500003D30133102BE8D101E0084610BD002031
:1055600010BD00BF000018E010B50446002838D078
:1055700045F09EFB1C4B1A78012A03D145F0E8FB4D
:10558000FB202FE001221A7045F0E2FB174B0022AE
:105590005A6022781AB15A6842F004025A6062785E
:1055A0001AB15A6842F002025A605A68104B1A60E7
:1055B000104A00231360104A52F833106FF35F1142
:1055C00042F8331063F30301C9B241F0100102F84D
:1055D000331002EBC30201330020082B5060EAD1E4
:1055E00000E0FA2040B210BD3D30201490ED00E004
:1055F00014980004D0970004D4970004044B5A6810
:1056000042F001025A605A68024B00201A6070474B
:1056100090ED00E014980004072813D80B4B986015
:105620001A6942F001021A611A69094B03EBC003BF
:105630005A60084B012202FA00F01A6802431A600D
:10564000002000E0FC2040B2704700BF90ED00E079
:10565000D4970004D0970004072814D80B4B986007
:105660001A6922F001021A611A69094B03EBC0039F
:105670005A60084B012202FA00F01A6822EA00027E
:105680001A60002000E0FC2040B2704790ED00E07E
:10569000D4970004D0970004072810B53CD80029FF
:1056A0003CD00A79131F1B2B02D91E48D6210AE0D1
:1056B0000B6801324FF0FF3404FA02F21A409342B1
:1056C00005D01848DC21184A184B40F097FF23F00A
:1056D0001F03174A43F010030343D3600B794C793F
:1056E0005B0043EA04638C7943EA04231361CB79BA
:1056F0001BB1136943F0805313610E4B0C6853F8D0
:105700003010640964F35F1143F8301003EBC000FC
:1057100012694260002002E0FC2000E0FA2040B262
:1057200010BD00BFC3B90508AAB90508654C070834
:1057300090ED00E0D4970004014B93F8D800704737
:105740000099000410B50468914024EA0104046043
:10575000016893401943016010BD000010B5044674
:105760002346044801210822FFF7ECFF024B1C707E
:1057700010BD00BF000006A23E3020140F4B1A6877
:10578000002A06DA1B680E487F210822C3F306634D
:1057900010E0110206D51B6809487F210822C3F3D7
:1057A000064307E0120407D51B6805487F2108223D
:1057B000C3F30623FFF7C6BF704700BF30020AA23B
:1057C000100006A22DE9F047FFF7B6FF734F744DA6
:1057D0003C680646302045F0EBF9C4F34010714CAC
:1057E00018B9FFF7BBFF2B6807E00120FFF7B6FFF2
:1057F0003B6813F0200F2B6806D103F47F432B6026
:10580000236803F47F4305E043F00C032B60236817
:1058100043F01D032360DFF8E8A1DFF8E891DFF82B
:10582000E881DFF8E8C1DFF8E8E15F4F5F4D604CE9
:1058300060486149614A002E52D0614BCAF800307D
:10584000C9F80030C8F80030CCF800305D4BCEF815
:1058500000305D4B3B605D4B2B605D4B236003F57F
:10586000902303605B4B0B605B4B13601C307F210C
:1058700018223B23FFF766FF58487F21102242235E
:10588000FFF760FF5548FF2108226323FFF75AFF07
:1058900052487F2118223523FFF754FF4F487F21BC
:1058A00010223B23FFF74EFF4C48FF2108223F23E5
:1058B000FFF748FF49487F2100220223FFF742FFFC
:1058C00047487F2110220423FFF73CFF44487F21F3
:1058D00008220323FFF736FF41487F21002251E0D1
:1058E000404BCAF80030C9F80030C8F80030CCF896
:1058F00000303D4BCEF80030A3F588333B603B4B86
:105900002B60334B23603A4B03603A4B0B603A4BAE
:10591000136032487F2118223B23FFF713FF2F48E3
:105920007F2110224223FFF70DFF2C48FF21082280
:105930005223FFF707FF29487F2118223523FFF75D
:1059400001FF26487F2110223B23FFF7FBFE23485F
:10595000FF2108223F23FFF7F5FE20487F21324632
:105960000223FFF7EFFE1E487F2110220423FFF7DA
:10597000E9FE1B487F2108220323FFF7E3FE1848B6
:105980007F2132460123FFF7DDFEFFF7F7FE1B4BB9
:105990001A6842F001021A60BDE8F087400001A2D7
:1059A00004010FA208010FA2180006A21C0006A203
:1059B000200006A2240006A2280006A22C0006A2AF
:1059C0005FB20B005F9F06003F8F05001F8A040037
:1059D0000F0A04001F8F09003F9F0A00400006A223
:1059E000440006A27FB20B007F9F06003F8A04009E
:1059F0001F8A08003F8F09007F9F0A00000006A24F
:105A0000040006A2080006A20C0006A2100006A2CE
:105A1000140006A21D2870B504460D4616460CD883
:105A200059B145F045F9064B43F8345003EBC40433
:105A3000666045F08DF9002000E0FE2040B270BDA8
:105A4000443020141D2838B504460D463ED845F094
:105A50002FF9024635B91F4B01211B6801FA04F4E6
:105A60009C660FE0012D05D11A4B1B6805FA04F462
:105A70009C6612E0022D08D1164B01211B6801FA29
:105A800004F41C67C3F8B04018E0032D08D1114B93
:105A900001211B6801FA04F41C67C3F8A8400DE05B
:105AA000042D08D10B4B01211B6801FA04F41C677B
:105AB000C3F8884002E045F04BF907E0104645F096
:105AC00047F9642045F004F9002000E0FE2040B2D0
:105AD00038BD00BF1C9800041D282DE9F041054683
:105AE0000C4623D8084600F0CDF8804645F0E0F893
:105AF00045F02EF90F4E2CB93368403503EB850580
:105B0000AC7011E03368AD002B4401270024C3F8CA
:105B100000417D2083F8027145F0DAF833681D44B6
:105B2000C5F8008185F80371204600E0FE2040B2F0
:105B3000BDE8F0811C98000470B5174E3368044628
:105B40000D4643B915491320FEF706FA1320FEF758
:105B5000C3F9012333601D2C1BD8D5B145F0A8F83B
:105B60000F4A002342F8343002EBC402536045F080
:105B7000EFF829782046FFF765FF6968064620465A
:105B8000FFF7AAFF3043C6B2204600F071F8304656
:105B900000E0FE2040B270BD40302014615D01087D
:105BA000443020141D2810B504460BD845F080F869
:105BB000064B01221B6802FA04F49C6445F0C8F805
:105BC000002000E0FE2040B210BD00BF1C98000481
:105BD0001D2810B504460BD845F06AF8064B012283
:105BE0001B6802FA04F41C6545F0B2F8002000E0DE
:105BF000FE2040B210BD00BF1C9800041D2838B51F
:105C000004460FD845F054F8084B01221B68A24007
:105C100005469A622046FFF7C5FF284645F098F8EA
:105C2000002000E0FE2040B238BD00BF1C980004F8
:105C30001D2838B504460FD845F03AF8084B012224
:105C40001B68A24005461A632046FFF7C1FF28469D
:105C500045F07EF8002000E0FE2040B238BD00BFD5
:105C60001C980004014B1B68186870471C980004BE
:105C7000034B01221B6802FA00F09860704700BFD6
:105C80001C98000440B13E2808D8C00300F5FA7003
:105C90004FF47A73B0FBF3F0002356E07D2808D868
:105CA00080034FF47A7300F5FA70B0FBF3F0012330
:105CB00045E0FA2808D840034FF47A7300F5FA70EB
:105CC000B0FBF3F002233AE0B0F5FA7F08D8000306
:105CD0004FF47A7300F5FA70B0FBF3F003232EE073
:105CE000B0F57A7F08D8C0024FF47A7300F5FA70E5
:105CF000B0FBF3F0042322E0B0F5FA6F08D880027D
:105D00004FF47A7300F5FA70B0FBF3F0052316E058
:105D1000B0F57A6F08D840024FF47A7300F5FA7044
:105D2000B0FBF3F006230AE0B0F5FA5F14D80002E6
:105D30004FF47A7300F5FA70B0FBF3F0072340F2EA
:105D4000FF72B0F5006F08BF10461B0303F4E04379
:105D500040F480301843704740F2FF700723F4E7A7
:105D600038B50D4B1B681D68ADB100240123A3405D
:105D70002B420DD0E0B2FFF741FF2046FFF778FF3E
:105D8000064A52F83430E10013B10A44506898478B
:105D900001341E2CEAD138BD1C9800044430201474
:105DA00008B50620FEF7A8F844F082FF074B012251
:105DB0001A70074B1A6842F480321A6044F0C8FF28
:105DC0000620BDE80840FEF787B800BF3531201433
:105DD000080006A073B505468E88104C009200207E
:105DE00001902070AB8808682A68314625F0F6FEDD
:105DF000002803DA0A480B4A982107E00A4B227868
:105E000042B9013BFBD10648084AA221FDF7E4FF55
:105E1000FF2000E0002040B202B070BD35312014F8
:105E20004FBB0508F3B90508010000101FBA0508AB
:105E300010B544F03DFF074B1C7824B144F088FFB7
:105E40006FF0630010BD01221A7044F081FF2046FC
:105E500010BD00BF343120142DE9F3410D46164624
:105E60001F469DF82080044610B109B102B133B934
:105E70003048314A40F21B11FDF7AEFF49E04B6854
:105E80001A0704D02B482D4A4FF4907117E042684E
:105E9000A3F110018A4207D200932648284A40F213
:105EA0002511FDF799FF34E0736823F00802102AEA
:105EB00008D0202B06D01F48224A40F22B11FDF7B4
:105EC0008BFF26E0FFF7B4FF64302DD01E4906207B
:105ED000FEF742F80620FDF7FFFF316830791B4ED0
:105EE00025F06EFEB8F1010F07BF404601460021C4
:105EF000012025F051FE204629463A46FFF76AFF69
:105F000048B10C48124A4FF4A171FDF765FF002318
:105F10003370FF2009E06A682168114411F8011C00
:105F20003070521A626000E09C2040B202B0BDE8BE
:105F3000F08100BF3FBB050839BA050877BA0508EC
:105F40009BBA0508E0BA0508A15D010834312014A8
:105F500017BB050870B586B006460D4614460021ED
:105F6000102202A840F0B9FB152044F021FE0023C6
:105F700022460093294602AB3046FFF76DFF0446E8
:105F8000152044F0EDFE204606B070BD044B1A68A3
:105F9000044B92F87510C90701D5013BF9D1704740
:105FA000F81C2014EEEE6E00034B1B68012283F8F0
:105FB0007420FFF7EBBF00BFF81C201410B5074C8E
:105FC000236845F66A029A66FFF7EEFF236849F2F6
:105FD00036129A66BDE81040FFF7E6BFF81C2014A1
:105FE000034B1B684FF4B0421A60FFF7DDBF00BFE0
:105FF000F81C201470B5124C236841F657221A641D
:106000000E460546FFF7C2FF236842F668321A645F
:10601000FFF7BCFF012E0AD004D3022E0BD1236858
:106020001D6408E02368EDB283F8405003E0236864
:10603000EDB283F84150BDE87040FFF7A7BF00BF45
:10604000F81C201408B5FFF7CBFF024B1B68586CF7
:1060500008BD00BFF81C201438B50A4C236841F66F
:1060600085225A640546FFF791FF23684EF2CF72EE
:106070005A64FFF78BFF23685D64BDE83840FFF783
:1060800085BF00BFF81C201470B5124C236841F284
:1060900053629A640E460546FFF778FF236848F678
:1060A00018129A64FFF772FF012E0AD004D3022E51
:1060B0000BD123689D6408E02368EDB283F8485053
:1060C00003E02368EDB283F84950BDE87040FFF764
:1060D0005DBF00BFF81C201470B5124C236845F654
:1060E0004A52DA640E460546FFF750FF236849F22C
:1060F0003F42DA64FFF74AFF012E0AD004D3022E92
:106100000BD12368DD6408E02368EDB283F84C50BE
:1061100003E02368EDB283F84D50BDE87040FFF70F
:1061200035BF00BFF81C201438B50C4C236802257D
:1061300083F83450FFF738FF23680A2283F83420AD
:10614000FFF732FF4FF47A7044F0C2FD236883F802
:106150003450FFF729FF23685B6B38BDF81C20140F
:1061600038B5124D1820FFF749FD2B6843F602128F
:106170005C681A60FFF718FFE2070AD52B68FE2259
:106180005A74FFF711FF0A4B1B6813B1094A1068D4
:106190009847A30705D5084B1B6813B1074A106839
:1061A00098471820BDE83840FFF742BDF81C20147E
:1061B000383120144C3120143C3120144431201447
:1061C000F8B5174C236815461A6842F440421A6025
:1061D000064601200F4644F07BFD23685A6812F4FE
:1061E0000042FBD10F4B47EA06261A601E60236867
:1061F0009A6045F400421A60C82044F069FD2368A3
:106200005A681204FCD4084ADB68127801350AB1D6
:10621000064800E006484543B5FBF3F0F8BD00BF73
:10622000001D2014240202A2FC1C201480BA8C0140
:10623000002D31012DE9F041134C236890461A6876
:1062400042F440421A6006464FF47A700F4644F01A
:106250003FFD23685D6815F40045FBD10B4B47EA11
:1062600006261D601E60236848F400429D604FF4BE
:106270007A701A6044F02CFD23685A681204FCD42A
:10628000D868BDE8F08100BF001D2014240202A2DE
:1062900008B5FFF7A5FE034B1B681868C0F3001094
:1062A00008BD00BFF81C201402292DE9F8438046E0
:1062B0000F4600F28A80FF2800F2878098B3FFF72C
:1062C0008FFE444B1B68DE6C012FF4B2C6F307252A
:1062D0002BD0022F57D00027012101FA07F313EA30
:1062E000080F15D033420AD0FE23C7F1080243FA43
:1062F00002F2BB4013431C402046002106E04FF44D
:106300008072BA40324203D11D432846FFF7E4FEB3
:106310000137082FE0D1012044F0DAFC6FF00100D2
:106320000121FFF7B1FE002050E038463946FFF763
:10633000ABFE0827C7F10809012303FA09F313EAA2
:10634000080F1DD033420AD0FE2303FA09F23B4165
:1063500013431C4020460021FFF7BEFE05E04FF42A
:10636000807303FA09F333420AD0FE2303FA09F9D2
:106370003B4149EA03031D4028460121FFF7ACFEDB
:10638000013FD7D1CFE701200146FFF77DFE00276F
:10639000012101FA07F919EA080F12D019EA060FCC
:1063A0000FD14FF48073BB40334204D145EA090555
:1063B0002846FFF791FE44EA090420460021FFF732
:1063C0008BFE0137082FE3D1ADE7FF2040B2BDE8D7
:1063D000F88300BFF81C20142DE9F3410121FF20B0
:1063E000FFF762FF012000F0BBFC524B1C78002C31
:1063F00068D121460120FFF7FDFDC82044F068FC6C
:10640000FFF720FE20F01F00FFF726FE04200121E9
:106410006322FFF7D5FEB0F5004F064641D9FFF7DE
:1064200011FE40F01F00FFF717FE04200121632238
:10643000FFF7C6FEB0F5004F074632D21F252B1BD3
:10644000012B1BD9FFF7FEFD05EB04084FEA5808A6
:1064500020F01F0040EA0800FFF7FEFD04200121A4
:106460006322FFF7ADFEB0F5004F04D819D0074600
:106470004546304600E044460646E0E7C7F500479B
:10648000A6F50046B74205D2FFF7DCFD20F01F005D
:10649000284304E0FFF7D6FD20F01F002043FFF75C
:1064A000DBFD632204200121FFF78AFE224BC0F5A9
:1064B000004002B21B6802F30D0242F480421A67E8
:1064C000FFF772FD1C4C01A8FDF768FD23681A68F0
:1064D000920713D443F602121A60FFF765FD236892
:1064E0004CF608021A60FFF75FFD236846F210427F
:1064F0001A60FFF759FD012044F062FC236843F65F
:1065000002121A60FFF750FD23684FF4C8421A6068
:10651000FFF74AFD012000F025FC0021FF20FFF7D6
:10652000C3FE0198FDF741FD6FF0010002B0BDE828
:10653000F08100BF48312014F81C201410B5274CFE
:1065400023685B68FFF7A4FE254B1870002838D03D
:10655000FFF734FD23684FF4C8421A60FFF724FDAB
:1065600023684FF448421A60FFF71EFD236843F684
:1065700002121A60FFF718FD1A4B1B7813F0200F58
:10658000194B04BF01221A70187880B90146FFF731
:1065900031FDC82044F09CFB144B1B7813B12368D9
:1065A000B82201E0236840221A67FFF7FDFC10487B
:1065B000104A40F2AA51FDF73FFC012000F0D2FB47
:1065C00005E00B480C4A40F2AE51FDF735FCFF20C8
:1065D0000021BDE81040FFF767BE00BFF81C201483
:1065E00040312014400001A248312014A30202A22D
:1065F000E7BB05086EBB050885BB05082DE9F04320
:106600007F4F3B7885B0002B40F0F680FFF7BEFC53
:10661000FFF794FFFFF7D2FC7A4B7B481B789C0670
:1066200008D47A4A40F26921FDF706FC784B012232
:106630001A7004E04FF41B71764AFDF7FDFB764DAE
:106640002A6892F87530980704D592F83430D90743
:1066500040F1B480536F526B00926B486F4A40F226
:106660007521FDF7D1FB6E4B1C78002C31D12B68C6
:1066700044F202321A602B6840F201165A689C609C
:106680004FF48072DC601C615C619A61DE611C62A7
:106690005C629A620722DE621C635E639C63DA635B
:1066A000FFF782FC02213046FFF7A4FC40F607709A
:1066B000FFF7D2FC03202146FFF7E6FC2B688A2275
:1066C0009C65DC651C665C66DC661C679A67FFF788
:1066D0006BFC2B68504EDFF8549140F201125A6364
:1066E000FFF762FC2B684AF2573846F2D274C3F8BF
:1066F00050805C65FFF758FCFFF716FD2B68C3F868
:1067000050805C65FFF750FCDFF82481FFF768FCE0
:106710002B6893F8753098F80020531E5A425A415E
:10672000404B1A70FFF78EFC40F08000FFF794FC9E
:10673000FFF7FAFC2B68002483F83540FFF734FCA0
:10674000334B187810B3FFF77DFC40F06000FFF783
:1067500083FC21460620FFF74DFCC82044F0B8FA20
:10676000012163220620FFF72BFDC0F500403368AE
:1067700040F30C0202F3CD021A67FFF715FC01206B
:106780002146FFF781FCC9F8004017E00123C9F852
:1067900000300146FFF72EFC98F8003013B1336843
:1067A000B82201E0336840221A67FFF7FDFBC820DA
:1067B00044F08EFA02200021FFF766FC2B688A2243
:1067C0009A67FFF7F1FB2B680722DA63FFF7ECFB10
:1067D0000023182002A98DF808300393FFF7ACF9C5
:1067E000024638B918201049FFF714F910B91820DB
:1067F000FFF71EFA01233B70002005B0BDE8F083CF
:1068000036312014400001A25EBB050895BB050887
:1068100048312014A7BB0508F81C2014B8BB050894
:1068200040312014FC1C2014616101088C0202A27A
:10683000A30202A208B500F095F8044B1B68C0B291
:1068400003B19847BDE8084000F09AB850312014D1
:1068500038B50446C8B10378012B16D84068B0F5A6
:106860007A7F12D80B4B00251D6000F03BF8207892
:1068700000F04CF82378012B09D107491120FDF7CE
:106880006BFB1120FDF728FB01E0FE2000E028460D
:1068900040B238BD503120143568010808B500F009
:1068A00049F8002008BD000008B5064B984206D103
:1068B000012000F047F800F033F8002000E0FF204E
:1068C00040B208BDBEBAFECA08B5054B984204D115
:1068D000002000F037F8002000E0FF2040B208BDA3
:1068E0006500FECA42F2107358439C22B0FBF2F2DC
:1068F000044B120442F012025A60034ADA60B920D3
:1069000044F0E6B9000009A29A7856140128034B16
:106910000CBF40F2171217229A617047000009A2BB
:10692000024B034ADA60B92044F0D2B9000009A250
:106930009A785614014B024A1A617047000009A266
:10694000AB896715064B28B140F211121A604FF45B
:106950008B7202E011221A6016225A61704700BF42
:10696000000009A2054B1B6A9A0705D413F0010F1A
:106970000CBF02200120704700207047000009A2D0
:10698000014BDB69704700BF000009A210B544F05D
:106990008FF90A4B1A78012A16BF0024FE2401221F
:1069A00064B218BF1A7044F0D3F9023403D000F077
:1069B0002EF8002000E0FE2040B210BD543120141B
:1069C00010B500F087F844F073F9034B00241C70F5
:1069D00044F0BEF9204610BD5431201438B50546A8
:1069E00040F6FF7000F016F801200146024600F064
:1069F00027F800F04BF800F071F8044600F058F862
:106A000014B12C60002000E0FE2040B238BD1220FE
:106A100044F0CEB8B0F5805F0DD8084B1B68DA683B
:106A200022F07F6222F47022DA60DA6842EA0040E3
:106A3000D860002000E0FE2040B27047041D201402
:106A400010B5114B20B11868C46844F0010403E08C
:106A50001868C46824F00104C46021B11968C868CA
:106A600040F0020003E01968C86820F00200C86026
:106A70001B681AB1DA6842F0040202E0DA6822F018
:106A80000402DA60002010BD041D201482B000232F
:106A90000193064B1B689A680192019A0132019298
:106AA0001A6842F001021A6002B07047041D2014F7
:106AB00082B000230193064B1B689A680192019AE9
:106AC000013201921A6822F001021A6002B0704786
:106AD000041D2014122044F043B9000082B0114A72
:106AE000002300930193136819690191019901F042
:106AF000010101911146019A012A09D01A690192F6
:106B0000019A022A0BD0019A02F001020192F2E7E7
:106B10005A611A600B689B680093009800E000209F
:106B200002B07047041D201410B5094B094C1A68B7
:106B300010B922F0010201E042F001021A604FF4A4
:106B4000FA7044F0C5F8236843F00103236010BDD8
:106B5000A80007A2080007A200231A4601219940B5
:106B6000014203F1010318BF0132202BF6D1104678
:106B70007047000010B5514C2068FFF7EDFF236807
:106B8000002800F09A80DA070CD54D4A1168A2F56A
:106B90004032A2F5007201F00F01106820F00F00E2
:106BA000014311609C070CD5454A1168A2F540329B
:106BB000A2F5007201F0F001106820F0F00001432E
:106BC000116058070CD53E4A1168A2F54032A2F573
:106BD000007201F47061106820F47060014311606C
:106BE00019070DD5364A1168A2F54032A2F5FE729A
:106BF000C1F30531106820F47C7040EA0111116086
:106C0000DA060CD52E4A1168A2F54032A2F5F872C8
:106C1000C1F38541106820F03F00014311609C06DC
:106C20000DD5274A1168A2F54032A2F5F272C1F3E0
:106C30000361106820F4F04040EAC1211160580659
:106C40000CD5204A1168A2F54032A2F51C7201F061
:106C50000F01106820F00F000143116019060CD5D8
:106C6000184A1168A2F54032A2F51C7201F0F00139
:106C7000106820F0F00001431160DA050DD5114ACB
:106C80001168A2F54032A2F51472C1F30321106815
:106C900020F4F07040EA411111609B050DD5094BBD
:106CA0001A68A3F54033A3F51473C2F302321968CE
:106CB00021F01C0141EA82021A6010BD08030AA2F9
:106CC00000030AA204030AA208B5FFF753FF064B0C
:106CD0001A6842F001021A60D3F8D02042F0010293
:106CE000C3F8D02008BD00BF040007A210B550B9FA
:106CF000184B1A6822F001021A604FF47A70BDE84E
:106D0000104043F0E5BF012823D1134CFFF7DCFF0F
:106D1000236843F002032360C82043F0D9FF2368AF
:106D200043F004032360C82043F0D2FF236843F0FC
:106D300001032360C82043F0CBFF236823F0010345
:106D40002360236823F004032360236823F00203F5
:106D5000236010BD000007A2C40007A2FFF7B4BF64
:106D6000FFF7E2BEFFF7C2BF0D4B984207B510D147
:106D700089B90C4B1B680BB10846984700238DF866
:106D80000030684601230193FFF762FDFFF786FD9F
:106D9000FEE7022000E0002003B05DF804FB00BF26
:106DA00026061620583120140D4B00225A625A63D1
:106DB0005A645A651A621A631A641A659A6A22F04A
:106DC0000F029A629A6B22F00F029A639A6C22F079
:106DD0000F029A649A6D22F00F029A65704700BF05
:106DE000001000E010B5124C2368DA071FD4FFF73B
:106DF000DBFFE368DB0305D4E36843F0807343F40F
:106E00008033E3600B4B0C4A1968090F11605A6A12
:106E100042F01F025A625A6B42F01F025A635A6CC8
:106E200042F01F025A645A6D42F01F025A6510BDAB
:106E3000F0ED00E0001000E05C31201470B5114C62
:106E40002468E4071AD4104C2468A04216D211EA30
:106E5000020613D10501AC0805F1604505F5815521
:106E600030462960094941F82420094A52F8241083
:106E700001F00F010B4342F8243070BD4FF0FF309A
:106E800070BD00BFF0ED00E05C312014241000E084
:106E9000281000E0112870B51BD112480368072B99
:106EA0000AD8114E0C255D4374197151626001229C
:106EB00013442272036070BD0C480D4A40F27911F0
:106EC000FCF78AFF0B480C4A0C4B4FF4BD713FF0A6
:106ED00095FB0B4C0C235843231821505A60012278
:106EE0001A7270BD843220148832201403BC050845
:106EF000C9BC050809BD05089EBC0508654C070806
:106F000060312014112870B51BD112480368072B7B
:106F10000AD8114E0C255D4374197151626001222B
:106F200013442272036070BD0C480D4A4FF4C671C1
:106F3000FCF752FF0B480C4A0C4B40F28D113FF00E
:106F40005DFB0B4C0C235843231821505A6001223F
:106F50001A7270BDEC3220142432201420C10508AE
:106F600051BD050809BD050874BC0508654C070836
:106F7000F03220142DE9F84F8046364D43F098FE4C
:106F80006B688346002423FA04F919F00109E6B27C
:106F900045D10122A24013430B2202FB045A6B602D
:106FA0002B7A0AF1290A0133494650462B723FF0E9
:106FB00094FB40463FF089FC0A2834BF07460A2765
:106FC000414650463A463FF064FB0FB149460CE05B
:106FD0002148224A40F2F111FCF7FEFE2048214AE6
:106FE000214B4FF4F9713FF009FBCBB2BB421AD2EF
:106FF0000B2202FB04521344013193F82930213B48
:107000005C2BF2D91448154A4FF4FB71FCF7E4FEEF
:107010001348144A144B40F2F7113FF0EFFA0134D1
:10702000122CB0D12646584643F092FE122E0CD1B7
:1070300009480E4A4FF40071FCF7CEFE0848094A91
:10704000094B40F201213FF0D9FA06F10E00C0B21F
:10705000BDE8F88FB03320144AC1050890BD05087B
:1070600009BD050853BC0508654C0708BCBD0508EB
:107070000E3838B5C4B2112C07D91648164A40F25A
:107080000F21BDE83840FCF7A7BE43F011FE134BBB
:107090005A6822FA04F1C90705460FD5197A013951
:1070A00019720121A14022EA01025A600B2202FB5F
:1070B0000430002129303FF010FB05E00548084A64
:1070C00040F21B21FCF7A0FE2846BDE8384043F003
:1070D0003FBE00BF6BC10508E8BD0508B0332014F2
:1070E00015BE05081F2973B505460C4608D92F485B
:1070F0002F4A40F2252102B0BDE87040FCF76CBE7B
:1071000043F0D6FD2B4B1919012D06464A7A21D1A1
:107110000132D2B24A721968A5402943FF2A196088
:107120003DD10D2C07D82148234A4FF40D71234639
:10713000FCF76AFE33E0A4F10E020B2101FB0233DF
:107140002933009319481D4A40F236212346FCF7A3
:107150005BFE24E05AB1013AD2B24A72FAB9012276
:1071600002FA04F41A6822EA04021A6017E00D2CED
:1071700007D80E48124A40F246212346FCF744FE47
:107180000DE0A4F10E020B2101FB02332933009321
:1071900006480C4A4FF412712346FCF735FE304680
:1071A00002B0BDE8704043F0D3BD00BF90C10508F8
:1071B000E8BD0508B033201447BE050882BE0508A7
:1071C000C0BE050805BF050810B543F071FD044BAE
:1071D0001C68003418BF012443F0BAFD204610BDDE
:1071E000B03320141F2808B507D90748074A40F2D2
:1071F0006221FCF7F1FD002008BD054B1B6823FA56
:1072000000F000F0010008BD2EBC0508E8BD05082F
:10721000B0332014014B1868704700BFB0332014FE
:10722000124A032313605360114B40F227121A6075
:1072300003F1414303F571031B68D90504D50D49DA
:1072400010220A6041F8242C9A0504D5094920220D
:107250000A6041F8242C5B0504D5064A40231360DC
:1072600042F8243C044B0F221A60704700E00FE004
:10727000400010E058000DA2A4000CA208B5034B7A
:10728000186800B1804740B208BD00BF20980004D4
:1072900008B5034B586800B1804740B208BD00BF35
:1072A000209800040D2840D8DFE800F0070B0F13EA
:1072B000171B1F23272B2F33373B1C4800213FF080
:1072C00015BA1B4801213FF011BA1A4802213FF0BC
:1072D0000DBA194803213FF009BA184804213FF0BC
:1072E00005BA174805213FF001BA164806213FF0BC
:1072F000FDB9154807213FF0F9B9144808213FF0BE
:10730000F5B9134809213FF0F1B912480A213FF0BD
:10731000EDB911480B213FF0E9B910480C213FF0BD
:10732000E5B90F480D213FF0E1B970474DBF0508A1
:1073300063BF05087FBF05089ABF0508B7BF0508EA
:10734000D3BF0508EBBF050803C005081BC005082F
:1073500032C0050849C0050869C0050888C005088D
:10736000A3C0050838B50F4B0F481D683FF0BEF9A4
:1073700000240123A3402B420ED0E3B20D2B03D8EF
:107380002046FFF78FFF07E0084B09480B222146F4
:1073900002FB04323FF0AAF90134202CE9D128463F
:1073A00038BD00BFB0332014BEC005083F332014E1
:1073B000EEC00508FF2810B50BD1094A1368144622
:1073C0006BB1DB0702D507483FF090F9002323603B
:1073D00010BD20B9024B1A6842F001021A6010BDBC
:1073E0002032201403C105080020FDF7FDBEFFF781
:1073F000C1BD08B501460120FFF774FE002008BD9D
:1074000008B501460020FFF76DFE002008BD000012
:1074100038B50446FFF7FEFE0123A34010EA03053A
:1074200007D00748074A4A212346FCF7D5FCFF202E
:1074300003E02046FFF71CFE284640B238BD00BFDF
:107440003DC20508C3C10508FFF7E4BEFFF7BCBE97
:10745000FFF7C8BE10B5044600200A490246FDF7F2
:1074600043FE094900208C4238BF21460246FDF701
:107470005BFE28B10548064A7521FCF7ADFCFF20EC
:1074800040B210BDE97301087BF0C10764C2050872
:10749000FAC10508012808B505D1BFF34F8F30BFE9
:1074A000BFF36F8F03E0022806D143F0D1FB002029
:1074B000BDE80840FDF798BE08BD000008B5FFF71D
:1074C000AFFE002000F03CF90020014600F0FCF87F
:1074D0000120002100F0F8F80020FDF7D1FD28B1CF
:1074E0000348044AB221FCF777FCFF2040B208BDF4
:1074F000ACC105081CC2050870B50446002857D168
:107500006C4B11BB1B685D0740F1D380302043F00A
:107510004FFB694B694C1A6822F480321A601D23B4
:107520002360012043F0D4FB1F232360012043F09C
:10753000CFFB1E232360012043F0CAFB1A232360E4
:10754000012043F0C5FB12232FE01A68540700F115
:10755000B0801B68580700F1AC80302043F028FB56
:10756000554B564C1A6842F480321A601623236039
:10757000012043F0ADFB1E232360012043F0A8FB54
:107580000E232360012043F0A3FB0C232360012082
:1075900043F09EFB1C232360012043F099FB1D2335
:1075A0002360012043F094FB0D232360012079E048
:1075B00001287ED13F4B002930D11B68190778D5AF
:1075C000302043F0F5FA3C4B3D4D1A683D4E22F019
:1075D00080721A601D232B60204643F079FB1F2325
:1075E0002B60204643F074FB336843F480333360F0
:1075F000204643F06DFB336843F0010333602046BF
:1076000043F066FB1E232B60204643F061FB1A23E8
:107610002B60204643F05CFB122341E01A681207FE
:1076200047D41B681B0744D4302043F0C1FA224BD7
:10763000234D1A68234E42F080721A6012232B6089
:10764000204643F045FB16232B60204643F040FBC9
:107650001E232B60204643F03BFB336823F480332A
:107660003360204643F034FB336823F0010333607A
:10767000204643F02DFB0E232B60204643F028FBD1
:107680000C232B60204643F023FB1C232B60204659
:1076900043F01EFB1D232B60204643F019FB0D23F6
:1076A0002B60204643F014FB3020BDE8704043F0CF
:1076B00057BB70BD08080FA2AC030FA208020FA2AF
:1076C0000C020FA260020FA238B580B9144C29B980
:1076D000256895B1013D25603DB904E0236801337B
:1076E000236013B10121FFF707FF206838BD01288F
:1076F00014D10B4C49B965681DB9FFF7FDFE28464A
:1077000038BD013D65603DB904E0626801326260E8
:1077100012B10146FFF7F0FE606838BD002038BDA9
:10772000DC9A0004044B054A40F080701860106831
:1077300000221A60704700BF30030FA234030FA26B
:10774000F0B5054691B0302043F032FA20B15348ED
:10775000534AA521FCF740FB524B534C1B68534B3B
:1077600023600A2043F0B4FA514B23600A2043F00F
:10777000AFFA504B504831221A60504A5A60504A72
:107780009A60504ADA60504A1A61504A00231360E6
:1077900053609360A2F55172442113600160126836
:1077A0004B4942F001020A604A4A4FF480361660A3
:1077B0001360006808604FF4000111601360464BCD
:1077C000464E032119604FF41B7143F89C1C174669
:1077D00043F8A06C2146A03B32462DB1404A43F805
:1077E0001C2C404B236013E0284640F080733E4C35
:1077F00052F8205043F48033236001303B4BB0F506
:107800001B7F1D60F1D13A4A43F8302C354B0B6099
:10781000384B1B689B05FBD5002500246019B0F58B
:107820001B7F06D2FFF77EFF4DF824000134102C99
:10783000F4D1684606EB8501A2003EF01BFF18B1AB
:107840002D483EF053FFFEE71035B5F51C7FE4D11F
:10785000254B186081233B60284B1B221A6018229D
:1078600043F8382CD3F8682242F48032C3F86822F7
:10787000D3F8682242F08072C3F86822A3F5A2739D
:1078800080221A60302043F06BFA20B103481C4A72
:10789000FD21FCF7A1FA11B0F0BD00BF8DCC0508A9
:1078A00038CC05081C0009A200030FA21000160B1B
:1078B0000000160B40030FA214000FA232001700A5
:1078C0003300580034006F0035007D0054030FA2D0
:1078D00038030FA260030FA2C0030FA288C20508DD
:1078E0000100160B0200160B30030FA234030FA287
:1078F000493C160BE4090FA256CC050844010FA21F
:107900006ECC050810B50446302043F051F9082C20
:10791000074B02D1FF221A6005E01A68012101FA23
:1079200004F414431C603020BDE8104043F018BA42
:1079300000000FA230B5184B93E8070087B003ACE6
:1079400084E80700002300224DF803205800111896
:1079500001258D401149294039B191000F258D40F5
:107960005DF8031029434DF803100132082AEED1C7
:1079700004330C2BE7D10A4B1868002300EB830279
:107980005DF82310116654F8231011650133032BA1
:10799000F4D107B030BD00BF20AE05081FF863006A
:1079A000081D2014024B1B6800229A605A60704721
:1079B000081D201400231A4601200B499040014065
:1079C00001B1034301320B2AF6D1084A126843F48D
:1079D000C053936440F607035364054B1B680122B0
:1079E0009A6500225A6570471FF863000C1D201429
:1079F000101D201400231A4601200B49904001401D
:107A000001B1034301320B2AF6D1084A126843F44C
:107A1000C05393634FF4FD635363054B1B6801220E
:107A20009A630F225A6370471FF863000C1D2014DD
:107A3000101D2014024B1B6800229A625A62704784
:107A4000081D201410B500220B230120084900FA5C
:107A500003F4214019B1A3F10B0188400243013323
:107A6000112BF2D1034B1B689A641C225A6410BD7F
:107A70001FF86300101D201410B500220B230120F5
:107A80000A4900FA03F4214019B1A3F10B0188401F
:107A900002430133112BF2D1054B1B689A669A679A
:107AA0001D225A6600225A6710BD00BF1FF86300EE
:107AB000101D201408B5FFF73DFFFFF773FFFFF718
:107AC00079FFFFF797FFFFF7BDFFFFF7D5FFBDE891
:107AD0000840FFF7AFBF00002DE9F041044602F077
